:0400000080314E28D5
:100008007E1480318B1E09280A2812280B1D0D2802
:100018000E2812288131EF2180314C288B1D15289C
:1000280016281E280B1C19281A281E288131E6219B
:1000380080314C280B1F212822284C282100121F10
:100048002628272830282000121F2B282C28302863
:1000580082311F2280314C282100921E34283528F5
:100068003E282000921E39283A283E288231232231
:1000780080314C282100911C422843284C2820001C
:10008800911C472848284C288231152280314C2859
:100098007E10090080315028F001F101F201F301CE
:1000A800F401F501F601F701F801F9012000A601B4
:1000B800A7017E1020008031A0288B12210091100A
:1000C8009212121330308C00F0308D0060308E00A8
:1000D80022008C018D018E012000921E7428752843
:1000E80081289212013022008C00C3300032890B23
:1000F8007A28000022008C019028121F8428852865
:1001080090281213013022008E00C3300032890B70
:100118008A28000022008E01303021008C00F03047
:100128008D008E0122008C018D018E010B118B1622
:10013800210092161217080081311E218031813169
:10014800DC2180318231272280318B1221009110ED
:1001580092121213D030FA000030FB008131FD21D9
:1001680080318930FA000130FB008131F72180317C
:100178008B170B1781314D218031270013120B117A
:100188002000921212138B162100921612172200C9
:100198008E13CD2880314E28031022008E1F0314A1
:1001A8000318D728DA2822008E17DC2822008E139D
:1001B80074087504031DE128E228EA28323021007A
:1001C8008C00F0308D0004308E00F1283030210092
:1001D8008C00F0308D000A308E0082312D22803163
:1001E8002000911021009114080022008C018D013B
:1001F8008E01393021008C00F0308D0001308E00E6
:100208000F3023008E008D0103308C0024008D01F7
:100218008C012100951722009D012700131212124C
:1002280011163230FA000230FB008231032280318D
:100238008B1508008031F920813182310922813102
:1002480082311B2281318131C421813182310F22D7
:1002580081318131D02181318131772181318131E1
:1002680037218131080021001508C039133895005D
:100278008630200095008630FC007C08FD000B11BC
:100288008B163130FA000230FB008131FD218131BB
:100298000800B43022009100B4309300740875044B
:1002A800031D572958295D299030920092309400F7
:1002B800612991309200933094000800B4302200F4
:1002C8009100B430930074087504031D6C296D29DE
:1002D80072299030920092309400762991309200E1
:1002E800933094000800793020009B009A01911007
:1002F800210091143030FA000230FB008131F721DF
:1003080081311C3020009C00080082312A22813172
:100318002100911030308C00F0308D008E010130BA
:10032800F4060030F5068131622181310800200091
:10033800200821040319A129A229A72921088A0034
:1003480020080A0081312700131208002000220823
:1003580023040319B029B129B62923088A002208E1
:100368000A00813108002000240825040319BD294A
:10037800BE29C32925088A0024080A0081310800FB
:1003880021001213B4302200930092309400200010
:10039800121321001217080021009212B430220013
:1003A80091009030920020009212210092160800CD
:1003B8003430220091009030920034309300903015
:1003C800940008002700131EEA29EB29EE29813141
:1003D8009B21813108000B117D0820009500813197
:1003E800B721813108007B082000A3007A08A20009
:1003F80008007B082000A5007A08A40008007B08F4
:100408002000A1007A08A00008007A302100990095
:100418002200960108008030220098001F309900C1
:100428000800200091108131AA218231080016307D
:100438002100970008008031612082310800803156
:1004480061208231080020001C11080020001C11C6
:0E045800080020001C1508000800080008001D
:020000040001F9
:04000E00E43FFF1FAD
:00000001FF
