:0400000080314E28D5
:100008007E1480318B1E09280A2812280B1D0D2802
:100018000E2812288131ED2180314C288B1D15289E
:1000280016281E280B1C19281A281E288131E4219D
:1000380080314C280B1F212822284C282100121F10
:100048002628272830282000121F2B282C28302863
:1000580082311D2280314C282100921E34283528F7
:100068003E282000921E39283A283E288231212233
:1000780080314C282100911C422843284C2820001C
:10008800911C472848284C288231132280314C285B
:100098007E10090080315028F001F101F201F301CE
:1000A800F401F501F601F701F801F9012000A601B4
:1000B800A7017E10200080319E288B12210091100C
:1000C8009212121330308C00F0308D0060308E00A8
:1000D80022008C018D018E012000921E7428752843
:1000E80080289212013022008C008530890B7A28F2
:1000F800000022008C018E28121F832884288E2855
:100108001213013022008E008530890B89280000E7
:1001180022008E01303021008C00F0308D008E01DD
:1001280022008C018D018E010B118B162100921675
:100138001217080081311C2180318131DA21803188
:100148008231252280318B122100911092121213D4
:10015800CE30FA000030FB008131FB21803187303E
:10016800FA000130FB008131F52180318B170B1724
:1001780081314B218031270013120B11200092127C
:1001880012138B1621009216121722008E13CB28F9
:1001980080314E28031022008E1F03140318D5281F
:1001A800D82822008E17DA2822008E1374087504C6
:1001B800031DDF28E028E828323021008C00F030C9
:1001C8008D0004308E00EF28303021008C00F03094
:1001D8008D000A308E0082312B2280312000911050
:1001E80021009114080022008C018D018E01393004
:1001F80021008C00F0308D0001308E000F3023007C
:100208008E008D0103308C0024008D018C012100AB
:10021800951722009D012700131212121116303073
:10022800FA000230FB008231012280318B15080070
:100238008031F720813182310722813182311922C0
:1002480081318131C221813182310D228131813167
:10025800CE21813181317521813181313521813141
:10026800080021001508C039133895008630200091
:1002780095008630FC007C08FD000B118B162F3092
:10028800FA000230FB008131FB2181310800B430D3
:1002980022009100B430930074087504031D552999
:1002A80056295B2990309200923094005F29913052
:1002B8009200933094000800B43022009100B430CA
:1002C800930074087504031D6A296B2970299030FE
:1002D80092009230940074299130920093309400E7
:1002E8000800793020009B009A0191102100911498
:1002F8002E30FA000230FB008131F52181311C30AB
:1003080020009C00080082312822813121009110B0
:1003180030308C00F0308D008E010130F406003052
:10032800F506813160218131080020002008210470
:1003380003199F29A029A52921088A0020080A0055
:100348008131270013120800200022082304031912
:10035800AE29AF29B42923088A0022080A0081316E
:1003680008002000240825040319BB29BC29C12939
:1003780025088A0024080A00813108002100121388
:10038800B430220093009230940020001213210010
:100398001217080021009212B43022009100903008
:1003A8009200200092122100921608003430220098
:1003B80091009030920034309300903094000800FF
:1003C8002700131EE829E929EC2981319921813177
:1003D80008000B117D08200095008131B52181317D
:1003E80008007B082000A3007A08A20008007B0808
:1003F8002000A5007A08A40008007B082000A100BE
:100408007A08A00008007A3021009900220096019D
:1004180008008030220098001F3099000800200052
:1004280091108131A82182310800163021009700EF
:1004380008008031612082310800803161208231DA
:10044800080020001C11080020001C1108002000D2
:0A0458001C15080008000800080049
:020000040001F9
:04000E00E43FFF1FAD
:00000001FF
